{
  "abi": [
    {
      "anonymous": false,
      "inputs": [
        {
          "indexed": false,
          "internalType": "address",
          "name": "account",
          "type": "address"
        }
      ],
      "name": "Paused",
      "type": "event"
    },
    {
      "anonymous": false,
      "inputs": [
        {
          "indexed": false,
          "internalType": "address",
          "name": "account",
          "type": "address"
        }
      ],
      "name": "Unpaused",
      "type": "event"
    },
    {
      "anonymous": false,
      "inputs": [
        {
          "indexed": false,
          "internalType": "uint256",
          "name": "newValue",
          "type": "uint256"
        }
      ],
      "name": "ValueChanged",
      "type": "event"
    },
    {
      "inputs": [
        {
          "internalType": "string",
          "name": "_version",
          "type": "string"
        },
        {
          "internalType": "uint256",
          "name": "_value",
          "type": "uint256"
        }
      ],
      "name": "initialize",
      "outputs": [],
      "stateMutability": "nonpayable",
      "type": "function"
    },
    {
      "inputs": [],
      "name": "paused",
      "outputs": [
        {
          "internalType": "bool",
          "name": "",
          "type": "bool"
        }
      ],
      "stateMutability": "view",
      "type": "function"
    },
    {
      "inputs": [],
      "name": "retrieve",
      "outputs": [
        {
          "internalType": "uint256",
          "name": "",
          "type": "uint256"
        }
      ],
      "stateMutability": "view",
      "type": "function"
    },
    {
      "inputs": [
        {
          "internalType": "uint256",
          "name": "newValue",
          "type": "uint256"
        }
      ],
      "name": "store",
      "outputs": [],
      "stateMutability": "nonpayable",
      "type": "function"
    },
    {
      "inputs": [],
      "name": "version",
      "outputs": [
        {
          "internalType": "string",
          "name": "",
          "type": "string"
        }
      ],
      "stateMutability": "view",
      "type": "function"
    }
  ],
  "bytecode": {
    "object": "0x608060405234801561001057600080fd5b50610731806100206000396000f3fe608060405234801561001057600080fd5b50600436106100575760003560e01c80632e64cec11461005c57806354fd4d50146100725780635c975abb146100875780636057361d1461009d5780638beaf7d7146100b2575b600080fd5b6066546040519081526020015b60405180910390f35b61007a6100c5565b6040516100699190610433565b60335460ff166040519015158152602001610069565b6100b06100ab366004610481565b610153565b005b6100b06100c03660046104b0565b6101d9565b606580546100d290610565565b80601f01602080910402602001604051908101604052809291908181526020018280546100fe90610565565b801561014b5780601f106101205761010080835404028352916020019161014b565b820191906000526020600020905b81548152906001019060200180831161012e57829003601f168201915b505050505081565b60335460ff161561019e5760405162461bcd60e51b815260206004820152601060248201526f14185d5cd8589b194e881c185d5cd95960821b60448201526064015b60405180910390fd5b60668190556040518181527f93fe6d397c74fdf1402a8b72e47b68512f0510d7b98a4bc4cbdf6ac7108b3c599060200160405180910390a150565b600054610100900460ff16806101f2575060005460ff16155b61020e5760405162461bcd60e51b81526004016101959061059f565b600054610100900460ff16158015610230576000805461ffff19166101011790555b610238610259565b61024283836102d5565b8015610254576000805461ff00191690555b505050565b600054610100900460ff1680610272575060005460ff16155b61028e5760405162461bcd60e51b81526004016101959061059f565b600054610100900460ff161580156102b0576000805461ffff19166101011790555b6102b8610354565b6102c06103be565b80156102d2576000805461ff00191690555b50565b600054610100900460ff16806102ee575060005460ff16155b61030a5760405162461bcd60e51b81526004016101959061059f565b600054610100900460ff1615801561032c576000805461ffff19166101011790555b6065610338848261063b565b5060668290558015610254576000805461ff0019169055505050565b600054610100900460ff168061036d575060005460ff16155b6103895760405162461bcd60e51b81526004016101959061059f565b600054610100900460ff161580156102c0576000805461ffff191661010117905580156102d2576000805461ff001916905550565b600054610100900460ff16806103d7575060005460ff16155b6103f35760405162461bcd60e51b81526004016101959061059f565b600054610100900460ff16158015610415576000805461ffff19166101011790555b6033805460ff1916905580156102d2576000805461ff001916905550565b600060208083528351808285015260005b8181101561046057858101830151858201604001528201610444565b506000604082860101526040601f19601f8301168501019250505092915050565b60006020828403121561049357600080fd5b5035919050565b634e487b7160e01b600052604160045260246000fd5b600080604083850312156104c357600080fd5b823567ffffffffffffffff808211156104db57600080fd5b818501915085601f8301126104ef57600080fd5b8135818111156105015761050161049a565b604051601f8201601f19908116603f011681019083821181831017156105295761052961049a565b8160405282815288602084870101111561054257600080fd5b826020860160208301376000602093820184015298969091013596505050505050565b600181811c9082168061057957607f821691505b60208210810361059957634e487b7160e01b600052602260045260246000fd5b50919050565b6020808252602e908201527f496e697469616c697a61626c653a20636f6e747261637420697320616c72656160408201526d191e481a5b9a5d1a585b1a5e995960921b606082015260800190565b601f82111561025457600081815260208120601f850160051c810160208610156106145750805b601f850160051c820191505b8181101561063357828155600101610620565b505050505050565b815167ffffffffffffffff8111156106555761065561049a565b610669816106638454610565565b846105ed565b602080601f83116001811461069e57600084156106865750858301515b600019600386901b1c1916600185901b178555610633565b600085815260208120601f198616915b828110156106cd578886015182559484019460019091019084016106ae565b50858210156106eb5787850151600019600388901b60f8161c191681555b5050505050600190811b0190555056fea2646970667358221220a8ec4dbd2685eb0073da36881ce204084b31a95932b9a0c7e0e3ee54f9aebf2564736f6c63430008120033",
    "linkReferences": {}
  },
  "methodIdentifiers": {
    "initialize(string,uint256)": "8beaf7d7",
    "paused()": "5c975abb",
    "retrieve()": "2e64cec1",
    "store(uint256)": "6057361d",
    "version()": "54fd4d50"
  },
  "id": 0
}