{
  "abi": [
    {
      "anonymous": false,
      "inputs": [
        {
          "indexed": false,
          "internalType": "uint8",
          "name": "version",
          "type": "uint8"
        }
      ],
      "name": "Initialized",
      "type": "event"
    },
    {
      "anonymous": false,
      "inputs": [
        {
          "indexed": false,
          "internalType": "address",
          "name": "account",
          "type": "address"
        }
      ],
      "name": "Paused",
      "type": "event"
    },
    {
      "anonymous": false,
      "inputs": [
        {
          "indexed": false,
          "internalType": "address",
          "name": "account",
          "type": "address"
        }
      ],
      "name": "Unpaused",
      "type": "event"
    },
    {
      "anonymous": false,
      "inputs": [
        {
          "indexed": false,
          "internalType": "uint256",
          "name": "newValue",
          "type": "uint256"
        }
      ],
      "name": "ValueChanged",
      "type": "event"
    },
    {
      "inputs": [],
      "name": "increment",
      "outputs": [],
      "stateMutability": "nonpayable",
      "type": "function"
    },
    {
      "inputs": [
        {
          "internalType": "string",
          "name": "_version",
          "type": "string"
        }
      ],
      "name": "initialize",
      "outputs": [],
      "stateMutability": "nonpayable",
      "type": "function"
    },
    {
      "inputs": [],
      "name": "paused",
      "outputs": [
        {
          "internalType": "bool",
          "name": "",
          "type": "bool"
        }
      ],
      "stateMutability": "view",
      "type": "function"
    },
    {
      "inputs": [],
      "name": "retrieve",
      "outputs": [
        {
          "internalType": "uint256",
          "name": "",
          "type": "uint256"
        }
      ],
      "stateMutability": "view",
      "type": "function"
    },
    {
      "inputs": [
        {
          "internalType": "uint256",
          "name": "newValue",
          "type": "uint256"
        }
      ],
      "name": "store",
      "outputs": [],
      "stateMutability": "nonpayable",
      "type": "function"
    },
    {
      "inputs": [],
      "name": "version",
      "outputs": [
        {
          "internalType": "string",
          "name": "",
          "type": "string"
        }
      ],
      "stateMutability": "view",
      "type": "function"
    }
  ],
  "bytecode": {
    "object": "0x608060405234801561001057600080fd5b5061075b806100206000396000f3fe608060405234801561001057600080fd5b50600436106100625760003560e01c80632e64cec11461006757806354fd4d501461007d5780635c975abb146100925780636057361d146100a8578063d09de08a146100bd578063f62d1888146100c5575b600080fd5b6066546040519081526020015b60405180910390f35b6100856100d8565b60405161007491906103ef565b60335460ff166040519015158152602001610074565b6100bb6100b636600461043d565b610166565b005b6100bb6101ec565b6100bb6100d336600461046c565b610249565b606580546100e59061051d565b80601f01602080910402602001604051908101604052809291908181526020018280546101119061051d565b801561015e5780601f106101335761010080835404028352916020019161015e565b820191906000526020600020905b81548152906001019060200180831161014157829003601f168201915b505050505081565b60335460ff16156101b15760405162461bcd60e51b815260206004820152601060248201526f14185d5cd8589b194e881c185d5cd95960821b60448201526064015b60405180910390fd5b60668190556040518181527f93fe6d397c74fdf1402a8b72e47b68512f0510d7b98a4bc4cbdf6ac7108b3c599060200160405180910390a150565b60335460ff16156102325760405162461bcd60e51b815260206004820152601060248201526f14185d5cd8589b194e881c185d5cd95960821b60448201526064016101a8565b6066805490600061024283610557565b9190505550565b60026000610256826102cc565b9050801561026e576000805461ff0019166101001790555b610276610354565b61027f83610385565b80156102c7576000805461ff001916905560405160ff831681527f7f26b83ff96e1f2b6a682f133852f6798a09c465da95921460cefb38474024989060200160405180910390a15b505050565b60008054610100900460ff1615610313578160ff1660011480156102ef5750303b155b61030b5760405162461bcd60e51b81526004016101a89061057e565b506000919050565b60005460ff80841691161061033a5760405162461bcd60e51b81526004016101a89061057e565b506000805460ff191660ff92909216919091179055600190565b600054610100900460ff1661037b5760405162461bcd60e51b81526004016101a8906105cc565b6103836103bc565b565b600054610100900460ff166103ac5760405162461bcd60e51b81526004016101a8906105cc565b60656103b88282610665565b5050565b600054610100900460ff166103e35760405162461bcd60e51b81526004016101a8906105cc565b6033805460ff19169055565b600060208083528351808285015260005b8181101561041c57858101830151858201604001528201610400565b506000604082860101526040601f19601f8301168501019250505092915050565b60006020828403121561044f57600080fd5b5035919050565b634e487b7160e01b600052604160045260246000fd5b60006020828403121561047e57600080fd5b813567ffffffffffffffff8082111561049657600080fd5b818401915084601f8301126104aa57600080fd5b8135818111156104bc576104bc610456565b604051601f8201601f19908116603f011681019083821181831017156104e4576104e4610456565b816040528281528760208487010111156104fd57600080fd5b826020860160208301376000928101602001929092525095945050505050565b600181811c9082168061053157607f821691505b60208210810361055157634e487b7160e01b600052602260045260246000fd5b50919050565b60006001820161057757634e487b7160e01b600052601160045260246000fd5b5060010190565b6020808252602e908201527f496e697469616c697a61626c653a20636f6e747261637420697320616c72656160408201526d191e481a5b9a5d1a585b1a5e995960921b606082015260800190565b6020808252602b908201527f496e697469616c697a61626c653a20636f6e7472616374206973206e6f74206960408201526a6e697469616c697a696e6760a81b606082015260800190565b601f8211156102c757600081815260208120601f850160051c8101602086101561063e5750805b601f850160051c820191505b8181101561065d5782815560010161064a565b505050505050565b815167ffffffffffffffff81111561067f5761067f610456565b6106938161068d845461051d565b84610617565b602080601f8311600181146106c857600084156106b05750858301515b600019600386901b1c1916600185901b17855561065d565b600085815260208120601f198616915b828110156106f7578886015182559484019460019091019084016106d8565b50858210156107155787850151600019600388901b60f8161c191681555b5050505050600190811b0190555056fea26469706673582212209c0030aefaf500bc8c490c64391e678756103eacad8e0f675384682f0937b5d964736f6c63430008120033",
    "linkReferences": {}
  },
  "methodIdentifiers": {
    "increment()": "d09de08a",
    "initialize(string)": "f62d1888",
    "paused()": "5c975abb",
    "retrieve()": "2e64cec1",
    "store(uint256)": "6057361d",
    "version()": "54fd4d50"
  },
  "id": 0
}